:020000040800F2
:1000000000100020D51300081D1400081D1400085E
:100010001D1400081D1400081D1400080000000035
:100020000000000000000000000000001D14000897
:100030001D140008000000001D1400081D14000815
:1000400000000000000000000000000000000000B0
:1000500000000000000000000000000000000000A0
:100060000000000000000000000000000000000090
:100070000000000000000000000000000000000080
:100080000000000000000000000000000000000070
:100090000000000000000000000000000000000060
:1000A0000000000000000000000000000000000050
:1000B0000000000000000000000000000000000040
:1000C0000000000000000000000000000000000030
:1000D0000000000000000000000000000000000020
:1000E0000000000000000000000000000000000010
:1000F0000000000000000000000000000000000000
:1001000000000000000000000000000000000000EF
:1001100000000000000000000000000000000000DF
:1001200000000000000000000000000000000000CF
:1001300000000000000000000000000000000000BF
:1001400000000000000000000000000000000000AF
:10015000000000000000000000000000000000009F
:10016000000000000000000000000000000000008F
:10017000000000000000000000000000000000007F
:08018000000000000000000077
:1001880010B5064C2378002B07D1054B002B02D065
:10019800044800E000BF0123237010BD6800002060
:1001A8000000000024260008044B10B5002B03D0E3
:1001B8000349044800E000BF10BDC046000000002D
:1001C8006C0000202426000802B471464908490042
:1001D800095C49008E4402BC7047C04600224308AF
:1001E8008B4274D303098B425FD3030A8B4244D3F7
:1001F800030B8B4228D3030C8B420DD3FF22090239
:1002080012BA030C8B4202D31212090265D0030BF7
:100218008B4219D300E0090AC30B8B4201D3CB03ED
:10022800C01A5241830B8B4201D38B03C01A52412F
:10023800430B8B4201D34B03C01A5241030B8B4231
:1002480001D30B03C01A5241C30A8B4201D3CB021C
:10025800C01A5241830A8B4201D38B02C01A524101
:10026800430A8B4201D34B02C01A5241030A8B4204
:1002780001D30B02C01A5241CDD2C3098B4201D31C
:10028800CB01C01A524183098B4201D38B01C01A9A
:10029800524143098B4201D34B01C01A5241030911
:1002A8008B4201D30B01C01A5241C3088B4201D3C0
:1002B800CB00C01A524183088B4201D38B00C01A6D
:1002C800524143088B4201D34B00C01A5241411A94
:1002D80000D20146524110467047FFE701B50020A1
:1002E80000F006F802BDC0460029F7D076E770474F
:1002F8007047C04603B47146490840004900095E8A
:1003080049008E4403BC7047F0B5CE46474680B5D9
:10031800070099463B0C9C4613041B0C1D000E005D
:1003280061460004140C000C45434B436043614391
:10033800C0182C0C20188C46834203D980235B02FA
:100348009846C444494679437243030C63442D04D8
:100358002D0CC918000440198918C0BCB946B0460C
:10036800F0BDC046002270B5802401001000064D83
:1003780064008B1A5E427341AE5C013273431843CA
:10038800C0B2A242F5D170BD3C27000870B5050087
:10039800040010352078FFF7E5FF20700134AC42E7
:1003A800F8D170BD002310B5C25CCC5C6240C25469
:1003B8000133102BF8D110BD1FB501000400102225
:1003C800684601F04DF800230F216846DA1C0A4000
:1003D800825CE2540133102BF7D11FBDF8B504003D
:1003E8000E0017000A2539002000FFF7DBFF200068
:1003F800FFF7CCFF2000FFF7DFFF013D31002000B1
:10040800FFF7D0FF002DEED1F8BD0000002270B537
:10041800802401001000064D64008B1A5E4273416F
:10042800AE5C013273431843C0B2A242F5D170BD2D
:100438003C26000870B50500040010352078FFF749
:10044800E5FF20700134AC42F8D170BD1FB5010042
:1004580004001022684601F003F800230F211A0057
:1004680068460D320A40825CE2540133102BF6D103
:100478001FBDF8B504000F0016000A25390020003A
:10048800FFF790FF2000FFF7E1FF2000FFF7D2FF02
:10049800013D31002000FFF785FF002DEED1F8BDAA
:1004A80030B5050085B0452000F0ECFF002401F0D0
:1004B80019F80E4B184003D50D4B0138184301307D
:1004C8006B46E0540134102CF1D100F057FA6A461B
:1004D80028000849FFF782FF00F058FA2A00210097
:1004E800722000F0DFF8002005B030BDFF0000806A
:1004F80000FFFFFF8400002010B511001800FFF76F
:10050800CFFF10BD30B5050085B0452000F0BAFF1B
:10051800002400F0E7FF0F4B184003D50E4B0138BD
:10052800184301306B46E0540134102CF1D100F02F
:1005380025FA00F023FA6A4628000849FFF799FFD0
:1005480000F024FA2A002100722000F0ABF8002005
:1005580005B030BDFF00008000FFFFFF84000020D1
:1005680010B511001800FFF7CDFF10BD0023044A95
:10057800C15C99540133102BFAD100207047C04652
:100588008400002010B51800FFF7F0FF10BD000030
:1005980010B500F047F900F071F900F0AFF900F07C
:1005A80071F81021084A642000F04EF81021074A1B
:1005B800652000F049F810216C20054A00F044F845
:1005C80000F0C0F8FCE7C04669050008010500080E
:1005D8008D050008030070B541184D25002099428B
:1005E80000D170BD08241A78504046B24200D0B2FB
:1005F800002E01DA6A40D0B2013C002CF5D101335B
:10060800EDE70022012330B5441C8B4201D30020C2
:1006180030BD2578002D02D19D1A85541A0001336A
:10062800DBB20134F1E730B500240278030004702E
:100638001000884201D2002A00D130BD1A5C1D1872
:1006480080182C70C0B2F4E770B50C4E0500336802
:1006580061200F2B02DCFF2904D9622000F0B6F9D3
:10066800012070BD0C245C43054801332554001952
:100678004160826033600020F3E7C04694000020A8
:100688009800002010B50021044A7620FFF7DCFF0F
:1006980000217720024AFFF7D7FF10BDFB060008AC
:1006A8001107000870B5C0B00C006B46002511009A
:1006B800587022009C701D70D81C00F0D1FE6B464B
:1006C800A11CC9B2581CFFF785FF23006B44D870E2
:1006D8006B46261D053468469D55E1B2FFF791FF2C
:1006E8006B46585D013500F071F9AE42F8DA40B05A
:1006F80070BD07B56B46DA1D032372200121137004
:10070800FFF7D0FF00200EBD7FB50C4B0C241968F5
:1007180000230B48CAB2934207DB6A467220C9B26B
:10072800FFF7C0FF002004B070BD25006E465D4392
:100738002D5CF5540133DBB2EDE7C0469400002090
:1007480098000020F0B50025C5B002ABDF1D3D7054
:1007580000F024F904AC2855002808D105233B7083
:100768003A0001216520FFF79DFF45B0F0BD013536
:10077800042DEDD129002000FFF755FF002101903D
:100788000C20264B62781B6800912549009E9E42EA
:1007980002DB0BD10123E2E7009E4643765C9642DA
:1007A80004D0009E0136F6B20096EFE7E378019A8E
:1007B8000533934202DA0423D1E7350000F0EEF85E
:1007C80060550028CAD0E3786E1C0433B342F4DACB
:1007D80000F0E4F8A0550028EDD1019BF6B2F11A1B
:1007E8000131C9B2E018FFF71EFF092002AB023E33
:1007F800C018F1B2FFF7EEFE635D834201D0022319
:10080800ADE7E278A17860780C24009B5C43044B48
:100818001B199C6805ABA0473870A1E7940000201D
:1008280098000020F0B59027002401250326042312
:1008380097B0FF05380005A9059306950794089613
:1008480000F046FB102305A9380005930695079488
:10085800089600F03DFB05230AA80B930A960D9411
:10086800139400F0C9F80723210001A80193029509
:100878000394049400F0A2FA17B0F0BD802170B57B
:100888001B4C8902626988B00A43626163699020DF
:100898000B400193019BC023DB0001250326039332
:1008A800022303A9C005049305950795069600F051
:1008B8000FFB8021A269C9010A43A261A3690D48FF
:1008C8000B400293029B236BB3431D430A4B2563E2
:1008D8000360E1239B02436000238360C3600361DC
:1008E80083610C33436100F05DFC08B070BDC04605
:1008F80000100240580100200038014080201E4AA4
:10090800F0B55169800201435161536987B00340D2
:1009180090240093012500260327009B8023E405EB
:10092800200001A9019302950396049700F0D0FADC
:100938001023200001A9019302950396049700F063
:10094800C7FA0423200001A901930295039604978E
:1009580000F0BEFA32002000802100F06BFB2A0074
:100968002000102100F066FB2A000421200000F07E
:1009780061FB07B0F0BDC04600100240902010B5E2
:1009880001228021C00500F055FB10BD902010B554
:1009980000228021C00500F04DFB10BD37B50825A9
:1009A8006B46DC1D012232232100064800F02CFC96
:1009B800002801D120783EBD034A136A2B431362F5
:1009C800EEE7C046580100200038014007B56B46E5
:1009D800D91D08700122024B024800F08DFC07BDAA
:1009E8008813000058010020024B1868421C1A6046
:1009F8007047C046C8010020F0B50368040085B000
:100A0800DB072FD423689B0700D581E023681B07E9
:100A180000D5BCE023685B0700D5DFE02368DB0670
:100A28001AD562690423B54D012A00D04AE1696BE1
:100A380002270B436B636B6B1A436A63FFF7D4FFA0
:100A480006006B6B3B4200D135E1F8216A6BA36964
:100A58008A43DB0013436B63216A002900D059E104
:100A6800002013E00C21A54D6A680A40042A06D02C
:100A78006B680B40082B0BD16B68DB0308D52B6820
:100A88009B03BFD56368002BBCD1012005B0F0BD26
:100A98006368012B13D180232A685B0213432B6000
:100AA800FFF7A2FF80270600BF022B683B42A9D1AF
:100AB800FFF79AFF801B6428F7D90320E6E7002B8D
:100AC80016D12B688E4A802713402B602B688D4ADD
:100AD800BF0213402B60FFF787FF06002B683B42DD
:100AE80000D18FE7FFF780FF801B6428F6D9E4E781
:100AF800052B05D180232A68DB0213432B60CAE744
:100B08002B687F4A13402B602B687E4A1340C6E748
:100B18000C227A4D6B68134206D06B681340082B81
:100B280010D16B68DB030DD42B689B0702D5E368F3
:100B3800012BAAD1F8212A6823698A43DB001343D1
:100B48002B6063E7E2680123002A0FD02A68022796
:100B580013432B60FFF748FF06002B683B42E9D19F
:100B6800FFF742FF801B0228F7D9A6E72A68022769
:100B78009A432A60FFF738FF06002B683B4200D1F2
:100B880044E7FFF731FF801B0228F6D995E7E269B1
:100B980001235A4D002A10D06A6A022713436B6258
:100BA800FFF722FF06006B6A3B4200D032E7FFF7EF
:100BB8001BFF801B0228F6D97FE76A6A02279A433F
:100BC8006A62FFF711FF06006B6A3B4200D121E71A
:100BD800FFF70AFF801B0228F6D96EE78022002162
:100BE800464D5205EB690091134208D1EB69134356
:100BF800EB61EB6913400393039B01230093802768
:100C0800414E7F0033683B4206D0A368012B13D1C5
:100C18002A6A13432B6230E033683B433360FFF7A3
:100C2800E3FE019033683B42EFD1FFF7DDFE019B05
:100C3800C01A6428F6D940E70122002B14D12B6A88
:100C4800022793432B622B6A033293432B62FFF7ED
:100C5800CBFE06002B6A3B4216D0FFF7C5FE2B4B96
:100C6800801B9842F6D928E7052B16D1296A013B43
:100C78000B432B622B6A1A432A62FFF7B5FE022741
:100C880006002B6A3B420FD0009B012B00D0C5E623
:100C9800EB691F4A1340EB61C0E62B6A93430422B9
:100CA8002B622B6A9343B5E7FFF79EFE174B801B19
:100CB8009842E6D901E7FFF797FE801B022800D883
:100CC800BFE6FAE6053203D16A6B9A436A63BCE66B
:100CD8006A6B0227134301226B636B6B93436B634D
:100CE800FFF782FE06006B6B3B4200D1B4E6FFF7CC
:100CF8007BFE801B0228F6D9DFE6C04600100240C2
:100D0800FFFFFEFFFFFFFBFF00700040881300009D
:100D1800FFFFFFEF0C22264D01206B681340082BC4
:100D280000D1B3E62B68234A13402B6002292FD148
:100D3800FFF75AFE80270600BF042B683B4221D1EB
:100D48000F22EB6A80269343E26AB6041343EB62F0
:100D5800616AA36A6A680B4317490A4013436B60C8
:100D680080232A685B0413432B60FFF73DFE0400D1
:100D78002B68334200D073E6FFF736FE001B0228CB
:100D8800F6D99AE6FFF730FE801B0228D5D994E6FB
:100D9800FFF72AFE80260400B6042B68334200D1F0
:100DA8005EE6FFF721FE001B0228F6D985E6C0465D
:100DB80000100240FFFFFFFEFFFFC2FFF7B5012250
:100DC8003E4D04002B680F0013408B4212D322685B
:100DD800930719D4D3071FD401232A681A40BA42AB
:100DE8005DD823685B0761D4E122354BD20300202C
:100DF8001A6008E02B6893430B432B602B68134061
:100E08008B42E4D00120FEBDF0202E494B6883437D
:100E1800A06803434B60DDE72A4E62683368012A05
:100E28001AD19B03EED5032173688B431343736078
:100E3800FFF7DAFD63680190012B15D10C22736866
:100E48001340042BC8D0FFF7CFFD019BC01A1E4BDF
:100E58009842F3D90320D6E7022A02D19B01E2D4B3
:100E6800D0E79B07DFD4CDE7022B12D00C227368A2
:100E78001342B1D0FFF7B8FD019BC01A124B98423C
:100E8800F4D9E7E7FFF7B0FD019BC01A0E4B984273
:100E9800E0D80C2273681340082BF3D19CE72A682A
:100EA8009A432A602A681A429BD0ABE7054A074949
:100EB80053680B40E1680B43536095E700200240FC
:100EC800000000200010024088130000FFF8FFFF18
:100ED8000023F0B587B00A681400DC4001D107B0E0
:100EE800F0BD012614009E4034400294324200D1E5
:100EF80092E04A6815000192102295430395022D4D
:100F08000DD107240F251C40A400A540DA08920043
:100F18008218176AAF430D69A5402F431762032251
:100F28005C00A240D543AC46032507689743019A65
:100F38002A40A240039D3A43013D0260012D0FD88B
:100F4800624685681540CA68A2402A43826045689F
:100F5800019AB5430126120932409A402A43426059
:100F68006546C2682A408D68A54080242A43C2602D
:100F7800019A640522424FD00125284A9027946996
:100F8800FF052C43946192699C082A400592059AB2
:100F9800234AA400A4180F2202351D40AD00AA4020
:100FA800A66896430022B8420CD01E4F0132B842C0
:100FB80008D01D4F0132B84204D01C4F0132B8424C
:100FC80000D00232AA403243A260194A029C166835
:100FD800029D019FE4433543FF0301D435002540BA
:100FE80015605668029D019F3543BF0301D4350043
:100FF800254055609668029D019F3543FF0201D444
:10100800350025409560D568029E019F2E43BF029A
:1010180001D425402E00D66001335CE70010024061
:10102800000001400004004800080048000C004887
:1010380000040140002A01D0816170478162FCE709
:10104800F8B504000D0017001E002268D3692B4074
:101058005B1B59424B41BB4201D0002018E0069B64
:101068000133F3D0069B002B13D123680C491A686F
:1010780003200A401A609A68A331FF318A439A60B4
:1010880022002023693213705370002368342370C0
:10109800F8BDFFF7A9FC069B801B9842D5D9E4E769
:1010A8005FFEFFFF030070B59A681D6904682A4354
:1010B8005D69C1692A432068334D0A4328400243C9
:1010C8002260626831481D6A0240D8680243626043
:1010D8009A69A0682A432E4D2840024303208025A0
:1010E800A2602C4A2D02126B0240013A022A43D810
:1010F8002948805CA94220D108281BD8FFF764F84A
:101108003E1A051A3E1A1A1A15005968234B480840
:10111800C018FFF763F883B2002019000F221B07DD
:1011280091435B0F0B43E36070BD59688023480807
:101138005B02EDE701200023EFE708281AD8FFF744
:1011480043F80F1905190F19191914005968144B88
:101158004808C018FFF742F880B2E0600020E3E7D3
:101168005968E1234808DB03F3E7596880234808F6
:101178001B02EEE70120D7E7A942F1D15968E12324
:1011880048081B04C4E7C046F369FFFFFFCFFFFF11
:10119800FFF4FFFF001002403C2800080048E80167
:1011A8000024F40070B5041E01D1012070BD0500B3
:1011B80069352B78DAB2002B02D1030068331A7034
:1011C800242301262B70226820001368B343136080
:1011D800FFF768FFB042E8D023680A495A68002040
:1011E8000A4008215A609A688A439A601A68164326
:1011F80022001E602023E0666A3268342B70137068
:101208002070D3E7FFF7FFFFF0B585B00393030025
:101218006A3317001A7804000D000220202A39D1F9
:101228000138002936D0002F34D08022A16852011D
:10123800914204D12269002A01D105422AD1220013
:10124800683211780220012924D00121117000226E
:10125800E26622321A70FFF7C7FB23008021A268DA
:1012680058331F805F800600490104338A4215D134
:101278002269002A10D11F4A1A801F8822005A3278
:10128800138898B2002B10D1230020226A336834C7
:101298001A70207005B0F0BDFF22EDE7002AECD1EE
:1012A8002269002AF8D07F22E6E713882021013B33
:1012B8009BB21380039B0022009320003300FFF7AA
:1012C800BFFE002813D1A2682368110080225201B2
:1012D800914207D12269002A04D19B8C3B402B8084
:1012E8000235CBE79B8C3B402B700135C6E70320CA
:1012F800D0E7C046FF010000F0B585B003930300B6
:10130800693302931B7804000D0016000220202B7D
:1013180048D10138002945D0002A43D08023A2684B
:101328005B019A4204D12369002B01D1014239D1D2
:10133800230068331A780220012A33D001221A7058
:101348000023029AE36621331370FFF74DFB230055
:1013580050331E805E8080260700760121005231BE
:101368000B889AB2002B0ED1039B402100932000DA
:101378003B00FFF765FE002813D12023029A68344A
:10138800137020700EE00B880022013B9BB20B808B
:10139800039B8021009320003B00FFF751FE0028AB
:1013A80002D0032005B0F0BDA3682268B34208D17B
:1013B8002369002B05D12B880235DB05DB0D13854E
:1013C800CCE72B7801351385C8E70000002103E03E
:1013D8000B4B5B58435004310A480B4B42189A4256
:1013E800F6D30A4A02E0002313600432084B9A42FB
:1013F800F9D300E000BF00F00FF8FFF7C9F8FEE7E7
:10140800B0290008000000206800002068000020C3
:10141800E0010020FEE7000070B500260C4D0D4CE1
:10142800641BA410A64209D1002601F0F7F80A4D62
:101438000A4C641BA410A64205D170BDB300EB583A
:1014480098470136EEE7B300EB5898470136F2E7C4
:10145800A8290008A8290008A8290008AC2900081C
:10146800002310B59A4200D110BDCC5CC45401339E
:10147800F8E703008218934200D1704719700133CE
:10148800F9E70000114B70B51D680400AB6B002B29
:1014980016D1182000F092F8021EA86304D1422148
:1014A8000B4B0C4800F05CF80B4B002103600B4B16
:1014B80043600B4B83600B238381012010615161D2
:1014C8000022AB6B1C615A6170BDC046040000204D
:1014D800442800085B2800080E33CDAB34126DE6B3
:1014E800ECDE0500164B10B51C68A36B002B16D15B
:1014F800182000F063F8021EA06304D14E21114B9E
:10150800114800F02DF8114B00210360104B436087
:10151800104B83600B238381012010615161A46B00
:101528000D4A206961690D4BFEF7EEFE012200238A
:1015380080185941206161614800400810BDC046CB
:1015480004000020442800085B2800080E33CDABB7
:1015580034126DE6ECDE05002D7F954C2DF45158C4
:1015680030B514001A00094B05001B6885B0D8680F
:10157800074B002C01D1074B1C00019300912B0055
:101588000549029400F00AF800F08EFC04000020DF
:10159800D828000813290008E52800080EB403B568
:1015A800010003AB044804CB0068019300F0E0F8A5
:1015B80002B008BC03B018470400002010B5034B64
:1015C8000100186800F04EF810BDC0460400002065
:1015D80070B50500002910D00C1F2368002B00DA15
:1015E800E418280000F0B2FE1D4A1368002B05D14C
:1015F80063601460280000F0B1FE70BDA34208D9F2
:10160800216860188342F3D118685B68411821602B
:10161800EEE71A005B68002B01D0A342F9D91168E4
:101628005018A0420BD12068091850181160834245
:10163800E0D118685B68411811605360DAE7A0428E
:1016480002D90C232B60D5E721686018834203D1A7
:1016580018685B684118216063605460CAE7C04637
:10166800CC010020F8B50323CD1C9D4308350600A6
:101678000C2D1FD20C25A9421ED8300000F066FEA2
:1016880025490A681400002C1AD1244F3B68002B06
:1016980004D12100300000F027FB38602900300019
:1016A80000F022FB431C2BD10C233000336000F0E8
:1016B80055FE03E0002DDEDA0C2333600020F8BD70
:1016C80023685B1B19D40B2B03D92360E41825600E
:1016D80003E06368A2420ED10B60300000F03EFECA
:1016E800200007220B30231D9043C21A9842E6D0EF
:1016F8001B1AA350E3E75360EFE722006468C2E7D0
:101708000323C41C9C43A042E1D0211A300000F0FE
:10171800EBFA431CDBD1C7E7CC010020D001002045
:10172800936810B5013B9360002B04DA9469A342D7
:1017380007DB0A2905D01368581C106019700800C7
:1017480010BD00F0E3FA0100F9E7F8B506000F0054
:101758001400D518AC4201D1002007E021783A00E6
:101768003000FFF7DDFF0134431CF3D1F8BD000062
:10177800F0B5A1B006000C001F000392002804D0A9
:101788008369002B01D100F0C5FC8E4B9C421CD113
:101798007468636EDB0705D4A3899B0502D4A06D2A
:1017A80000F059FDA3891B0702D52369002B1DD121
:1017B8002100300000F000FB002817D0636EDB0723
:1017C8000DD50120404221B0F0BD7F4B9C4201D194
:1017D800B468DEE77D4B9C42DBD1F468D9E7A38986
:1017E8009B05EED4A06D00F037FDEAE7002308ADB5
:1017F8006B6120336B761033AB760797039F3B788A
:10180800002B01D0252B4ED1039BFB1A0593039B7C
:101818009F420DD0059B21003000039AFFF795FFEA
:10182800431C00D1B5E06A69059B944663446B612B
:101838003B78002B00D1ACE001227B1C03930023F2
:1018480052426A6004A9543252182B60EB60AB60B4
:101858001370AB65039B052219785D4800F06AFD9B
:10186800039B5F1C002820D12A68D30604D5532384
:1018780004A95B1820211970130704D5532304A960
:101888005B182B211970039B1B782A2B16D000217B
:10189800EB68039F3A78781C303A8446092A4FD976
:1018A800002911D117E00137A9E7494B2A68C01A66
:1018B8000123834013432B600397CBE7079B191D34
:1018C8001B680791002B01DB0B9304E05B42EB6084
:1018D800022313432B603B782E2B0AD17B782A2BCB
:1018E80037D1079B02371A1D1B680792002B2DDB87
:1018F800099303223978374800F01CFD002807D0E7
:10190800344B2A68C01A40238340134301372B60A5
:1019180039787B1C062230480393297600F00AFDAB
:10192800002845D02D4B002B27D10722079B0733D2
:101938009343083307936B69049A9B186B615DE7BF
:101948000A214B4367469B180939A3E701235B42E9
:10195800CEE700231A0001376B603978781C3039DC
:101968008446092903D9002BC3D00992C1E70A2369
:101978005A4367465218093BEFE707AB009322002A
:1019880029003000164B00E000BF0490049B01338F
:10199800D1D1636EDB0705D4A3899B0502D4A06D62
:1019A80000F05AFCA3895B0600D50AE70D980AE700
:1019B80007AB0093220029003000094B00F082F8A1
:1019C800E3E7C04668290008882900084829000874
:1019D800142900081A2900081E2900080000000020
:1019E80053170008F7B5150001938A680B690C00B6
:1019F8000090934200DA130022002B6043321278E1
:101A0800002A01D001332B6023689B0602D52B687E
:101A180002332B602268062317001F401A4227D082
:101A2800230043331B785A1E93412268920630D410
:101A3800220001990098089E4332B047431C25D0E4
:101A4800062320682A68E16800250340042B03D197
:101A58008D1AEB43DB171D40A3682269934201DD11
:101A68009B1AED180027BD4220D1002010E0013755
:101A7800E3682A689B1ABB42D2DD22000123019940
:101A88000098089E1932B047431CF0D1012040420B
:101A9800FEBD3020E1184331087021005A1C453141
:101AA8000978A218433202331170C1E722000123DA
:101AB80001990098089E1A32B047431CE6D00137B6
:101AC800D1E70000F0B58BB006920A0043320793C5
:101AD800059004920A7E0C00109B782A07D8622A87
:101AE80009D8002A00D1C1E0582A00D18CE026008C
:101AF8004236327022E0100063381528F7D8FEF716
:101B0800F9FB16001F00F6FFF6FFF6FFF6FF1F00B1
:101B1800F6FFF6FFF6FFF6FFA80036009A00F6FF7C
:101B2800F6FFB900F6FF3600F6FFF6FF9E00260026
:101B38001A684236111D1960136833700123A7E033
:101B4800086819680A1D05060BD50D681A60002D6E
:101B580003DA2D23049A6D421370614B0A2703930D
:101B68001BE00D681A604106F1D52DB2EFE70D684C
:101B78001968081D18602E0601D50D6803E06D066A
:101B8800FBD50D68ADB2564B082703936F2A00D0DA
:101B980002372300002243331A706368A360002BC6
:101BA80003DB0422216891432160002D02D1049EA9
:101BB800002B0CD0049E28003900FEF795FB039BF0
:101BC800013E5B5C33702B0005009F42F3D9082F60
:101BD80009D12368DB0706D563682269934202DCD2
:101BE8003023013E3370049B9B1B2361079B21001C
:101BF80000930598069B09AAFFF7F4FE431C4CD1F5
:101C0800012040420BB0F0BD45310A70344A0392BE
:101C18001A68216820CA1A60080616D5CB0702D5AB
:101C28002023194321601027002DB2D120232268D8
:101C38009A432260ADE7202209680A432260220005
:101C4800782145321170274AE1E74806E6D5ADB25A
:101C5800E4E71A680D68101D4969186013682E06B4
:101C680001D5196002E06D06FBD519800023049E9A
:101C78002361BBE71A68111D19601668002130003E
:101C8800626800F057FB002801D0801B6060636821
:101C980023610023049A1370A8E723693200069988
:101CA8000598079DA847431CAAD023689B0715D40D
:101CB800099BE0689842A5DA1800A3E722000123EF
:101CC80006990598079E1932B047431C98D00135EC
:101CD800E368099A9B1AAB42F0DCE9E70025F7E7CD
:101CE8002529000836290008002370B5064D040090
:101CF80008002B6000F07AFC431C03D12B68002BF2
:101D080000D0236070BDC046D8010020F8B505009A
:101D18000E001400002804D08369002B01D100F0C4
:101D2800F9F9224B9C422ED16C68A369A360A38960
:101D38001B0732D52369002B2FD023682269F7B2FD
:101D4800981A6369F6B2834205DC2100280000F086
:101D58003FF9002827D1A3680130013BA36023681D
:101D68005A1C22601F706369834204D0A389DB0771
:101D780007D50A2E05D12100280000F029F90028EE
:101D880011D13000F8BD0A4B9C4201D1AC68CCE7B8
:101D9800084B9C42C9D1EC68C7E72100280000F035
:101DA8000BF80028C9D001267642EAE7682900081E
:101DB8008829000848290008374B70B51D680600B7
:101DC8000C00002D05D0AB69002B02D1280000F0D3
:101DD800A1F9324B9C420FD16C680C23E25E93B29E
:101DE80011072DD4D90611D40923012033603733C4
:101DF8001343A381404270BD294B9C4201D1AC687A
:101E0800EBE7284B9C42E8D1EC68E6E75B0713D583
:101E1800616B002908D023004433994202D0300076
:101E2800FFF7D6FB002363632422A3899343A3818E
:101E380000236360236923600823A2891343A381D5
:101E48002369002B0BD1A0218022A389890092004D
:101E58000B40934203D02100300000F027FA0C22F7
:101E6800A35E01201A0099B2024003420FD000225B
:101E7800A26062695242A261002022698242BAD1FC
:101E88000A06B8D540221343A3810138B3E788076F
:101E980000D46269A260EFE7040000206829000806
:101EA8008829000848290008062010B500F088FA9B
:101EB800012000F0B1FB0000F7B58B8905000C008C
:101EC8001A075FD44A68002A04DC0A6C002A01DC7D
:101ED8000020FEBDE76A002FFAD0002280212E687C
:101EE8002A601A0049010A400B4234D0606DA38968
:101EF8005B0706D56368C01A636B002B01D0236C9F
:101F0800C01A0200216A00232800E76AB847A1899D
:101F1800431C06D12B681D2B31D82C4ADA40D30735
:101F28002DD50023636023692360CB0405D5431CAA
:101F380002D12B68002B00D16065616B2E600029EF
:101F4800C6D023004433994202D02800FFF740FB53
:101F580000206063BDE701232800216AB847431CBD
:101F6800C5D12B68002BC2D01D2B01D0162B01D157
:101F78002E60ADE74023A2891343A381A9E740233C
:101F88000B43FAE70F69002FA2D00A680F60D21B33
:101F9800019200229B0700D14A69A260019B002B95
:101FA80000DC95E73A002800019B216AA66AB04741
:101FB800002806DC40230120A28940421343A38164
:101FC80087E7019B3F181B1A0193E7E701004020B0
:101FD8000B6970B505000C00002B02D10025280004
:101FE80070BD002804D08369002B01D100F092F85D
:101FF800144B9C421BD16C680C22A35E002BEDD0C5
:10200800626ED20704D49B0502D4A06D00F023F9B8
:1020180028002100FFF750FF636E0500DB07DED4C0
:10202800A3899B05DBD4A06D00F016F9D7E7064B12
:102038009C4201D1AC68DFE7044B9C42DCD1EC68E0
:10204800DAE7C046682900088829000848290008F6
:10205800002310B5040003604360836081814366F8
:102068001900C28103614361836108225C30FFF774
:1020780000FA054B24626362044BA362044BE362DB
:10208800044B236310BDC04609240008312400080E
:10209800692400089524000810B5024900F0BAF830
:1020A80010BDC046D91F000870B568254A1E5543A3
:1020B8000E0029007431FFF7D5FA041E08D000215C
:1020C8002A00016046600C30A0606832FFF7D1F941
:1020D800200070BD10B5024800F0BDF810BDC04624
:1020E800D501002010B5024800F0B6F810BDC04672
:1020F800D501002010B5024800F0ADF810BDC0466B
:10210800D601002010B5024800F0A6F810BDC04660
:10211800D601002013B50400FFF7ECFFA369002BDC
:1021280002D0FFF7EFFF13BDA364E3642365134BED
:10213800134A1B68A2620193A34201D10123A36140
:10214800200000F01FF86060200000F01BF8A0607D
:10215800200000F017F800220421E0606068FFF713
:1021680077FF01220921A068FFF772FF02221221DE
:10217800E068FFF76DFF0123A361D2E7402800085C
:10218800A1200008F8B50700FFF7A4FF1F4B1E6841
:10219800B369002B02D13000FFF7BCFF4836B468A2
:1021A8007368013B04D53368002B22D03668F6E704
:1021B8000C22A55E002D1AD12000154B5830E36083
:1021C800656600F047F8FFF78DFF20000822290018
:1021D8002560A560656025616561A5615C30FFF7D4
:1021E80048F96563A563A564E5642000F8BD683413
:1021F800D7E704213800FFF757FF041E3060D5D118
:10220800FFF770FF0C233B60EFE7C046402800084B
:102218000100FFFFF7B504000600002701914834CC
:102228006368A5680093009B013B009304D524686C
:10223800002CF5D13800FEBDAB89012B08D90E2240
:10224800AB5E013304D029003000019B9847074357
:102258006835E8E7704770477047000070B50E00B2
:102268001D000E23C95E140096B0002908DA0C225E
:10227800B35E00222A601B0611D48023DB000FE026
:102288006A4600F02FF90028F1DBF02301991B02C0
:102298001940054BC9184B4259412960EDE74023C5
:1022A8000020236016B070BD00E0FFFFF7B50226DE
:1022B8008B8905000C00334206D023004733236086
:1022C800236101236361F7BD6A4601ABFFF7C6FFCF
:1022D800009907002800FFF7C5F9002808D10C224B
:1022E800A35E9A05EFD4032293431E43A681E4E735
:1022F8000F4BAB628023A28920601343A381009B0C
:1023080020616361019B002B0DD028000E23E15E44
:1023180000F0FAF8002806D00322A38993431A0094
:1023280001231343A381A0890743A781CBE7C046B4
:10233800A1200008C9B28218904201D1002070473C
:1023480003788B42FBD00130F6E7000010B5024855
:10235800FFF781FF10BDC046D401002010B5024828
:10236800FFF77AFF10BDC046D401002070B5040005
:102378000D001F2904D9162303600120404270BDB7
:10238800436C002B04D08A009B181A68002A08D1D5
:10239800200000F031F82A000100200000F01AF8AF
:1023A800EDE70020012AEAD0511C03D116230130A1
:1023B8002360E4E7002428001C6090472000DEE743
:1023C80010B5034B01001868FFF7D0FF10BDC046D9
:1023D80004000020002370B5064D04000800110019
:1023E8002B6000F0EBF8431C03D12B68002B00D0C6
:1023F800236070BDD801002010B500F0CFF810BDE3
:1024080070B50C000E25495F00F0A4F8002803DB26
:10241800636D1B18636570BDA389024A1340A381CD
:10242800F9E7C046FFEFFFFFF8B51F008B890500ED
:102438000C001600DB0505D50E23C95E0022022319
:1024480000F074F8A389054A28001340A3813200DC
:102458000E23E15E3B0000F01FF8F8BDFFEFFFFF21
:1024680070B50C000E25495F00F060F8A389421C86
:1024780003D1054A1340A38170BD80225201134342
:10248800A3816065F8E7C046FFEFFFFF10B50E2394
:10249800C95E00F015F810BD70B504000800110001
:1024A8001A000023054D2B6000F0AEF8431C03D141
:1024B8002B68002B00D0236070BDC046D8010020D7
:1024C800002370B5064D040008002B6000F056F894
:1024D800431C03D12B68002B00D0236070BDC0467D
:1024E800D8010020002370B5064D04000800110033
:1024F8002B6000F04BF8431C03D12B68002B00D055
:10250800236070BDD8010020002370B5064D04007B
:1025180008002B6000F04AF8431C03D12B68002BFD
:1025280000D0236070BDC046D801002070B50400FB
:10253800080011001A000023054D2B6000F046F832
:10254800431C03D12B68002B00D0236070BDC0460C
:10255800D801002070B50400080011001A000023FB
:10256800054D2B6000F03AF8431C03D12B68002B73
:1025780000D0236070BDC046D80100205822012039
:10258800014B40421A607047D801002058220120B0
:10259800014B40421A607047D801002058220120A0
:1025A800014B40421A607047D80100205822024B64
:1025B80000201A607047C046D80100205822012028
:1025C800014B40421A607047D80100205822012070
:1025D800014B40421A607047D80100205822012060
:1025E800014B40421A607047D8010020044A03009A
:1025F8001068002802D0C318136070470148FAE732
:10260800DC010020E001002058220120014B40425B
:102618001A607047D8010020FEE7C046F8B5C046EA
:10262800F8BC08BC9E467047F8B5C046F8BC08BC64
:042638009E46704703
:10263C0052096AD53036A538BF40A39E81F3D7FB2B
:10264C007CE339829B2FFF87348E4344C4DEE9CB75
:10265C00547B9432A6C2233DEE4C950B42FAC34EEA
:10266C00082EA16628D924B2765BA2496D8BD125A0
:10267C0072F8F66486689816D4A45CCC5D65B69244
:10268C006C704850FDEDB9DA5E154657A78D9D84E8
:10269C0090D8AB008CBCD30AF7E45805B8B3450608
:1026AC00D02C1E8FCA3F0F02C1AFBD0301138A6B22
:1026BC003A9111414F67DCEA97F2CFCEF0B4E67352
:1026CC0096AC7422E7AD3585E2F937E81C75DF6E00
:1026DC0047F11A711D29C5896FB7620EAA18BE1B66
:1026EC00FC563E4BC6D279209ADBC0FE78CD5AF40C
:1026FC001FDDA8338807C731B11210592780EC5F52
:10270C0060517FA919B54A0D2DE57A9F93C99CEFAD
:10271C00A0E03B4DAE2AF5B0C8EBBB3C83539961AE
:10272C00172B047EBA77D626E169146355210C7DEC
:10273C00637C777BF26B6FC53001672BFED7AB7672
:10274C00CA82C97DFA5947F0ADD4A2AF9CA472C01D
:10275C00B7FD9326363FF7CC34A5E5F171D831158A
:10276C0004C723C31896059A071280E2EB27B275AB
:10277C0009832C1A1B6E5AA0523BD6B329E32F8423
:10278C0053D100ED20FCB15B6ACBBE394A4C58CF1B
:10279C00D0EFAAFB434D338545F9027F503C9FA8EF
:1027AC0051A3408F929D38F5BCB6DA2110FFF3D2BD
:1027BC00CD0C13EC5F974417C4A77E3D645D197371
:1027CC0060814FDC222A908846EEB814DE5E0BDB6B
:1027DC00E0323A0A4906245CC2D3AC629195E479A2
:1027EC00E7C8376D8DD54EA96C56F4EA657AAE08FC
:1027FC00BA78252E1CA6B4C6E8DD741F4BBD8B8A97
:10280C00703EB5664803F60E613557B986C11D9EFC
:10281C00E1F8981169D98E949B1E87E9CE5528DF73
:10282C008CA1890DBFE6426841992D0FB054BB169F
:10283C0004080200080000205245454E54206D61EA
:10284C006C6C6F6320737563636565646564002FDE
:10285C006D6E742F776F726B73706163652F776F0A
:10286C00726B73706163652F4743432D31302D704C
:10287C006970656C696E652F6A656E6B696E732D18
:10288C004743432D31302D706970656C696E652D31
:10289C0034385F32303230313132345F31363036A9
:1028AC003138303634312F7372632F6E65776C6923
:1028BC00622F6E65776C69622F6C6962632F73741B
:1028CC00646C69622F72616E642E63002C206675D5
:1028DC006E6374696F6E3A2000617373657274690C
:1028EC006F6E2022257322206661696C65643A2024
:1028FC0066696C6520222573222C206C696E65201C
:10290C002564257325730A00232D302B2000686C59
:10291C004C006566674546470030313233343536F6
:10292C00373839414243444546003031323334352F
:10293C003637383961626364656600000000000058
:10294C00000000000000000000000000000000007B
:10295C00000000000000000000000000000000006B
:10296C00000000000000000000000000000000005B
:10297C00000000000000000000000000000000004B
:10298C00000000000000000000000000000000003B
:0C299C000000000000000000000000002F
:0429A800B101000871
:0429AC008901000895
:1029B00000127A00080000200000000068290008CA
:1029C00088290008482900080000000000000000D5
:1029D00000000000000000000000000000000000F7
:1029E00000000000000000000000000000000000E7
:1029F00000000000000000000000000000000000D7
:102A000000000000000000000000000000000000C6
:082A10000000000000000000BE
:04000005080013D507
:00000001FF
